{
  "_format": "hh-sol-artifact-1",
  "contractName": "NFTMarketplace",
  "sourceName": "contracts/NFTMarketplace.sol",
  "abi": [
    {
      "anonymous": false,
      "inputs": [
        {
          "indexed": true,
          "internalType": "address",
          "name": "tokenAddress",
          "type": "address"
        },
        {
          "indexed": true,
          "internalType": "uint256",
          "name": "tokenId",
          "type": "uint256"
        },
        {
          "indexed": true,
          "internalType": "address",
          "name": "buyer",
          "type": "address"
        },
        {
          "indexed": false,
          "internalType": "uint256",
          "name": "price",
          "type": "uint256"
        }
      ],
      "name": "ItemBought",
      "type": "event"
    },
    {
      "anonymous": false,
      "inputs": [
        {
          "indexed": true,
          "internalType": "address",
          "name": "tokenAddress",
          "type": "address"
        },
        {
          "indexed": true,
          "internalType": "uint256",
          "name": "tokenId",
          "type": "uint256"
        },
        {
          "indexed": true,
          "internalType": "address",
          "name": "seller",
          "type": "address"
        }
      ],
      "name": "ItemCanceled",
      "type": "event"
    },
    {
      "anonymous": false,
      "inputs": [
        {
          "indexed": true,
          "internalType": "address",
          "name": "tokenAddress",
          "type": "address"
        },
        {
          "indexed": true,
          "internalType": "uint256",
          "name": "tokenId",
          "type": "uint256"
        },
        {
          "indexed": true,
          "internalType": "address",
          "name": "seller",
          "type": "address"
        },
        {
          "indexed": false,
          "internalType": "uint256",
          "name": "price",
          "type": "uint256"
        }
      ],
      "name": "ItemListed",
      "type": "event"
    },
    {
      "inputs": [
        {
          "internalType": "address",
          "name": "tokenAddress",
          "type": "address"
        },
        {
          "internalType": "uint256",
          "name": "tokenId",
          "type": "uint256"
        }
      ],
      "name": "buyItem",
      "outputs": [],
      "stateMutability": "payable",
      "type": "function"
    },
    {
      "inputs": [
        {
          "internalType": "address",
          "name": "tokenAddress",
          "type": "address"
        },
        {
          "internalType": "uint256",
          "name": "tokenId",
          "type": "uint256"
        }
      ],
      "name": "cancelListing",
      "outputs": [],
      "stateMutability": "nonpayable",
      "type": "function"
    },
    {
      "inputs": [
        {
          "internalType": "address",
          "name": "tokenAddress",
          "type": "address"
        },
        {
          "internalType": "uint256",
          "name": "tokenId",
          "type": "uint256"
        }
      ],
      "name": "getListing",
      "outputs": [
        {
          "components": [
            {
              "internalType": "uint256",
              "name": "price",
              "type": "uint256"
            },
            {
              "internalType": "address",
              "name": "seller",
              "type": "address"
            }
          ],
          "internalType": "struct NFTMarketplace.Listing",
          "name": "",
          "type": "tuple"
        }
      ],
      "stateMutability": "view",
      "type": "function"
    },
    {
      "inputs": [
        {
          "internalType": "address",
          "name": "tokenAddress",
          "type": "address"
        },
        {
          "internalType": "uint256",
          "name": "tokenId",
          "type": "uint256"
        },
        {
          "internalType": "uint256",
          "name": "price",
          "type": "uint256"
        }
      ],
      "name": "listItem",
      "outputs": [],
      "stateMutability": "nonpayable",
      "type": "function"
    },
    {
      "inputs": [
        {
          "internalType": "address",
          "name": "",
          "type": "address"
        },
        {
          "internalType": "uint256",
          "name": "",
          "type": "uint256"
        }
      ],
      "name": "listings",
      "outputs": [
        {
          "internalType": "uint256",
          "name": "price",
          "type": "uint256"
        },
        {
          "internalType": "address",
          "name": "seller",
          "type": "address"
        }
      ],
      "stateMutability": "view",
      "type": "function"
    }
  ],
  "bytecode": "0x6080604052348015600f57600080fd5b5061175c8061001f6000396000f3fe6080604052600436106100495760003560e01c806207df301461004e57806388700d1c1461008c57806389bfd38f146100c95780639f37092a146100f2578063b2ddee061461010e575b600080fd5b34801561005a57600080fd5b5061007560048036038101906100709190610f43565b610137565b604051610083929190610fa1565b60405180910390f35b34801561009857600080fd5b506100b360048036038101906100ae9190610f43565b610188565b6040516100c09190611017565b60405180910390f35b3480156100d557600080fd5b506100f060048036038101906100eb9190611032565b610252565b005b61010c60048036038101906101079190610f43565b61065c565b005b34801561011a57600080fd5b5061013560048036038101906101309190610f43565b610a98565b005b6000602052816000526040600020602052806000526040600020600091509150508060000154908060010160009054906101000a900473ffffffffffffffffffffffffffffffffffffffff16905082565b610190610e70565b6000808473ffffffffffffffffffffffffffffffffffffffff1673ffffffffffffffffffffffffffffffffffffffff1681526020019081526020016000206000838152602001908152602001600020604051806040016040529081600082015481526020016001820160009054906101000a900473ffffffffffffffffffffffffffffffffffffffff1673ffffffffffffffffffffffffffffffffffffffff1673ffffffffffffffffffffffffffffffffffffffff1681525050905092915050565b60008111610295576040517f08c379a000000000000000000000000000000000000000000000000000000000815260040161028c906110e2565b60405180910390fd5b60008390503373ffffffffffffffffffffffffffffffffffffffff168173ffffffffffffffffffffffffffffffffffffffff16636352211e856040518263ffffffff1660e01b81526004016102ea9190611102565b602060405180830381865afa158015610307573d6000803e3d6000fd5b505050506040513d601f19601f8201168201806040525081019061032b9190611132565b73ffffffffffffffffffffffffffffffffffffffff1614610381576040517f08c379a0000000000000000000000000000000000000000000000000000000008152600401610378906111ab565b60405180910390fd5b3073ffffffffffffffffffffffffffffffffffffffff168173ffffffffffffffffffffffffffffffffffffffff1663081812fc856040518263ffffffff1660e01b81526004016103d19190611102565b602060405180830381865afa1580156103ee573d6000803e3d6000fd5b505050506040513d601f19601f820116820180604052508101906104129190611132565b73ffffffffffffffffffffffffffffffffffffffff1614806104ac57508073ffffffffffffffffffffffffffffffffffffffff1663e985e9c533306040518363ffffffff1660e01b815260040161046a9291906111cb565b602060405180830381865afa158015610487573d6000803e3d6000fd5b505050506040513d601f19601f820116820180604052508101906104ab919061122c565b5b6104eb576040517f08c379a00000000000000000000000000000000000000000000000000000000081526004016104e2906112a5565b60405180910390fd5b60405180604001604052808381526020013373ffffffffffffffffffffffffffffffffffffffff168152506000808673ffffffffffffffffffffffffffffffffffffffff1673ffffffffffffffffffffffffffffffffffffffff16815260200190815260200160002060008581526020019081526020016000206000820151816000015560208201518160010160006101000a81548173ffffffffffffffffffffffffffffffffffffffff021916908373ffffffffffffffffffffffffffffffffffffffff1602179055509050503373ffffffffffffffffffffffffffffffffffffffff16838573ffffffffffffffffffffffffffffffffffffffff167fb29a3c5d9c9eb8230bd277c54293a0a15e98cd5592a3e0d470fe9ce59fed54f1856040516106179190611102565b60405180910390a46106566040518060600160405280603081526020016116f7603091393385670de0b6b3a76400008661065191906112f4565b610ce9565b50505050565b600160009054906101000a900460ff16156106ac576040517f08c379a00000000000000000000000000000000000000000000000000000000081526004016106a390611371565b60405180910390fd5b60018060006101000a81548160ff02191690831515021790555060008060008473ffffffffffffffffffffffffffffffffffffffff1673ffffffffffffffffffffffffffffffffffffffff1681526020019081526020016000206000838152602001908152602001600020604051806040016040529081600082015481526020016001820160009054906101000a900473ffffffffffffffffffffffffffffffffffffffff1673ffffffffffffffffffffffffffffffffffffffff1673ffffffffffffffffffffffffffffffffffffffff1681525050905060008160000151116107cb576040517f08c379a00000000000000000000000000000000000000000000000000000000081526004016107c2906113dd565b60405180910390fd5b80600001513414610811576040517f08c379a000000000000000000000000000000000000000000000000000000000815260040161080890611449565b60405180910390fd5b6000808473ffffffffffffffffffffffffffffffffffffffff1673ffffffffffffffffffffffffffffffffffffffff16815260200190815260200160002060008381526020019081526020016000206000808201600090556001820160006101000a81549073ffffffffffffffffffffffffffffffffffffffff021916905550508273ffffffffffffffffffffffffffffffffffffffff166342842e0e826020015133856040518463ffffffff1660e01b81526004016108d393929190611469565b600060405180830381600087803b1580156108ed57600080fd5b505af1158015610901573d6000803e3d6000fd5b505050506000816020015173ffffffffffffffffffffffffffffffffffffffff163460405161092f906114d1565b60006040518083038185875af1925050503d806000811461096c576040519150601f19603f3d011682016040523d82523d6000602084013e610971565b606091505b50509050806109b5576040517f08c379a00000000000000000000000000000000000000000000000000000000081526004016109ac90611532565b60405180910390fd5b3373ffffffffffffffffffffffffffffffffffffffff16838573ffffffffffffffffffffffffffffffffffffffff167f3e54435e36ae559863863c86ae49ae6974ff464d5ccf01c2aae2254c9131b1a68560000151604051610a179190611102565b60405180910390a4610a776040518060400160405280601881526020017f257320626f7567687420257320666f72202573204554482e00000000000000008152503385670de0b6b3a76400008660000151610a7291906112f4565b610ce9565b50506000600160006101000a81548160ff0219169083151502179055505050565b60008060008473ffffffffffffffffffffffffffffffffffffffff1673ffffffffffffffffffffffffffffffffffffffff1681526020019081526020016000206000838152602001908152602001600020604051806040016040529081600082015481526020016001820160009054906101000a900473ffffffffffffffffffffffffffffffffffffffff1673ffffffffffffffffffffffffffffffffffffffff1673ffffffffffffffffffffffffffffffffffffffff168152505090503373ffffffffffffffffffffffffffffffffffffffff16816020015173ffffffffffffffffffffffffffffffffffffffff1614610bc8576040517f08c379a0000000000000000000000000000000000000000000000000000000008152600401610bbf9061159e565b60405180910390fd5b6000808473ffffffffffffffffffffffffffffffffffffffff1673ffffffffffffffffffffffffffffffffffffffff16815260200190815260200160002060008381526020019081526020016000206000808201600090556001820160006101000a81549073ffffffffffffffffffffffffffffffffffffffff021916905550503373ffffffffffffffffffffffffffffffffffffffff16828473ffffffffffffffffffffffffffffffffffffffff167fc448b641f9d136b2082a1543ddddd8b6f8b86576bc444a187505ea3934bac2f860405160405180910390a4610ce46040518060400160405280601381526020017f2573206c6973742063616e63656c6564202573000000000000000000000000008152503384610d8b565b505050565b610d8584848484604051602401610d03949392919061163d565b6040516020818303038152906040527ff8f51b1e000000000000000000000000000000000000000000000000000000007bffffffffffffffffffffffffffffffffffffffffffffffffffffffff19166020820180517bffffffffffffffffffffffffffffffffffffffffffffffffffffffff8381831617835250505050610e2a565b50505050565b610e25838383604051602401610da393929190611689565b6040516020818303038152906040527f0d26b925000000000000000000000000000000000000000000000000000000007bffffffffffffffffffffffffffffffffffffffffffffffffffffffff19166020820180517bffffffffffffffffffffffffffffffffffffffffffffffffffffffff8381831617835250505050610e2a565b505050565b610e4181610e39610e44610e65565b63ffffffff16565b50565b60006a636f6e736f6c652e6c6f679050600080835160208501845afa505050565b610ea0819050919050565b604051806040016040528060008152602001600073ffffffffffffffffffffffffffffffffffffffff1681525090565b610ea86116c7565b565b600080fd5b600073ffffffffffffffffffffffffffffffffffffffff82169050919050565b6000610eda82610eaf565b9050919050565b610eea81610ecf565b8114610ef557600080fd5b50565b600081359050610f0781610ee1565b92915050565b6000819050919050565b610f2081610f0d565b8114610f2b57600080fd5b50565b600081359050610f3d81610f17565b92915050565b60008060408385031215610f5a57610f59610eaa565b5b6000610f6885828601610ef8565b9250506020610f7985828601610f2e565b9150509250929050565b610f8c81610f0d565b82525050565b610f9b81610ecf565b82525050565b6000604082019050610fb66000830185610f83565b610fc36020830184610f92565b9392505050565b610fd381610f0d565b82525050565b610fe281610ecf565b82525050565b604082016000820151610ffe6000850182610fca565b5060208201516110116020850182610fd9565b50505050565b600060408201905061102c6000830184610fe8565b92915050565b60008060006060848603121561104b5761104a610eaa565b5b600061105986828701610ef8565b935050602061106a86828701610f2e565b925050604061107b86828701610f2e565b9150509250925092565b600082825260208201905092915050565b7f5072696365206d757374206265203e2030000000000000000000000000000000600082015250565b60006110cc601183611085565b91506110d782611096565b602082019050919050565b600060208201905081810360008301526110fb816110bf565b9050919050565b60006020820190506111176000830184610f83565b92915050565b60008151905061112c81610ee1565b92915050565b60006020828403121561114857611147610eaa565b5b60006111568482850161111d565b91505092915050565b7f4e6f7420746865206f776e657200000000000000000000000000000000000000600082015250565b6000611195600d83611085565b91506111a08261115f565b602082019050919050565b600060208201905081810360008301526111c481611188565b9050919050565b60006040820190506111e06000830185610f92565b6111ed6020830184610f92565b9392505050565b60008115159050919050565b611209816111f4565b811461121457600080fd5b50565b60008151905061122681611200565b92915050565b60006020828403121561124257611241610eaa565b5b600061125084828501611217565b91505092915050565b7f4d61726b6574706c616365206e6f7420617070726f7665640000000000000000600082015250565b600061128f601883611085565b915061129a82611259565b602082019050919050565b600060208201905081810360008301526112be81611282565b9050919050565b7f4e487b7100000000000000000000000000000000000000000000000000000000600052601260045260246000fd5b60006112ff82610f0d565b915061130a83610f0d565b92508261131a576113196112c5565b5b828204905092915050565b7f5265656e7472616e637920646574656374656400000000000000000000000000600082015250565b600061135b601383611085565b915061136682611325565b602082019050919050565b6000602082019050818103600083015261138a8161134e565b9050919050565b7f4e4654206e6f7420666f722073616c6500000000000000000000000000000000600082015250565b60006113c7601083611085565b91506113d282611391565b602082019050919050565b600060208201905081810360008301526113f6816113ba565b9050919050565b7f53656e6420657861637420455448000000000000000000000000000000000000600082015250565b6000611433600e83611085565b915061143e826113fd565b602082019050919050565b6000602082019050818103600083015261146281611426565b9050919050565b600060608201905061147e6000830186610f92565b61148b6020830185610f92565b6114986040830184610f83565b949350505050565b600081905092915050565b50565b60006114bb6000836114a0565b91506114c6826114ab565b600082019050919050565b60006114dc826114ae565b9150819050919050565b7f5061796d656e74206661696c6564000000000000000000000000000000000000600082015250565b600061151c600e83611085565b9150611527826114e6565b602082019050919050565b6000602082019050818103600083015261154b8161150f565b9050919050565b7f4e6f742073656c6c657200000000000000000000000000000000000000000000600082015250565b6000611588600a83611085565b915061159382611552565b602082019050919050565b600060208201905081810360008301526115b78161157b565b9050919050565b600081519050919050565b60005b838110156115e75780820151818401526020810190506115cc565b60008484015250505050565b6000601f19601f8301169050919050565b600061160f826115be565b6116198185611085565b93506116298185602086016115c9565b611632816115f3565b840191505092915050565b600060808201905081810360008301526116578187611604565b90506116666020830186610f92565b6116736040830185610f83565b6116806060830184610f83565b95945050505050565b600060608201905081810360008301526116a38186611604565b90506116b26020830185610f92565b6116bf6040830184610f83565b949350505050565b7f4e487b7100000000000000000000000000000000000000000000000000000000600052605160045260246000fdfe2573277320746f6b656e2d25732077617320636f6d706c6574656c79206c697374656420696e746f202573204554482ea2646970667358221220908a394c4e4dbcd7af2cbc1d1ce96f7e3d4ac3c05b0d7e8d93907642b67a945a64736f6c634300081c0033",
  "linkReferences": {},
  "deployedLinkReferences": {}
}