{
  "_format": "hh-sol-artifact-1",
  "contractName": "NFTCollection",
  "sourceName": "contracts/NFTCollection.sol",
  "abi": [
    {
      "inputs": [],
      "stateMutability": "nonpayable",
      "type": "constructor"
    },
    {
      "inputs": [
        {
          "internalType": "address",
          "name": "sender",
          "type": "address"
        },
        {
          "internalType": "uint256",
          "name": "tokenId",
          "type": "uint256"
        },
        {
          "internalType": "address",
          "name": "owner",
          "type": "address"
        }
      ],
      "name": "ERC721IncorrectOwner",
      "type": "error"
    },
    {
      "inputs": [
        {
          "internalType": "address",
          "name": "operator",
          "type": "address"
        },
        {
          "internalType": "uint256",
          "name": "tokenId",
          "type": "uint256"
        }
      ],
      "name": "ERC721InsufficientApproval",
      "type": "error"
    },
    {
      "inputs": [
        {
          "internalType": "address",
          "name": "approver",
          "type": "address"
        }
      ],
      "name": "ERC721InvalidApprover",
      "type": "error"
    },
    {
      "inputs": [
        {
          "internalType": "address",
          "name": "operator",
          "type": "address"
        }
      ],
      "name": "ERC721InvalidOperator",
      "type": "error"
    },
    {
      "inputs": [
        {
          "internalType": "address",
          "name": "owner",
          "type": "address"
        }
      ],
      "name": "ERC721InvalidOwner",
      "type": "error"
    },
    {
      "inputs": [
        {
          "internalType": "address",
          "name": "receiver",
          "type": "address"
        }
      ],
      "name": "ERC721InvalidReceiver",
      "type": "error"
    },
    {
      "inputs": [
        {
          "internalType": "address",
          "name": "sender",
          "type": "address"
        }
      ],
      "name": "ERC721InvalidSender",
      "type": "error"
    },
    {
      "inputs": [
        {
          "internalType": "uint256",
          "name": "tokenId",
          "type": "uint256"
        }
      ],
      "name": "ERC721NonexistentToken",
      "type": "error"
    },
    {
      "inputs": [
        {
          "internalType": "address",
          "name": "owner",
          "type": "address"
        }
      ],
      "name": "OwnableInvalidOwner",
      "type": "error"
    },
    {
      "inputs": [
        {
          "internalType": "address",
          "name": "account",
          "type": "address"
        }
      ],
      "name": "OwnableUnauthorizedAccount",
      "type": "error"
    },
    {
      "anonymous": false,
      "inputs": [
        {
          "indexed": true,
          "internalType": "address",
          "name": "owner",
          "type": "address"
        },
        {
          "indexed": true,
          "internalType": "address",
          "name": "approved",
          "type": "address"
        },
        {
          "indexed": true,
          "internalType": "uint256",
          "name": "tokenId",
          "type": "uint256"
        }
      ],
      "name": "Approval",
      "type": "event"
    },
    {
      "anonymous": false,
      "inputs": [
        {
          "indexed": true,
          "internalType": "address",
          "name": "owner",
          "type": "address"
        },
        {
          "indexed": true,
          "internalType": "address",
          "name": "operator",
          "type": "address"
        },
        {
          "indexed": false,
          "internalType": "bool",
          "name": "approved",
          "type": "bool"
        }
      ],
      "name": "ApprovalForAll",
      "type": "event"
    },
    {
      "anonymous": false,
      "inputs": [
        {
          "indexed": false,
          "internalType": "uint256",
          "name": "_fromTokenId",
          "type": "uint256"
        },
        {
          "indexed": false,
          "internalType": "uint256",
          "name": "_toTokenId",
          "type": "uint256"
        }
      ],
      "name": "BatchMetadataUpdate",
      "type": "event"
    },
    {
      "anonymous": false,
      "inputs": [
        {
          "indexed": true,
          "internalType": "address",
          "name": "from",
          "type": "address"
        },
        {
          "indexed": true,
          "internalType": "address",
          "name": "to",
          "type": "address"
        },
        {
          "indexed": false,
          "internalType": "uint256",
          "name": "tokenId",
          "type": "uint256"
        }
      ],
      "name": "FreeTransfer",
      "type": "event"
    },
    {
      "anonymous": false,
      "inputs": [
        {
          "indexed": false,
          "internalType": "uint256",
          "name": "_tokenId",
          "type": "uint256"
        }
      ],
      "name": "MetadataUpdate",
      "type": "event"
    },
    {
      "anonymous": false,
      "inputs": [
        {
          "indexed": true,
          "internalType": "address",
          "name": "user",
          "type": "address"
        },
        {
          "indexed": false,
          "internalType": "uint256",
          "name": "tokenId",
          "type": "uint256"
        },
        {
          "indexed": false,
          "internalType": "string",
          "name": "collectionName",
          "type": "string"
        }
      ],
      "name": "Minted",
      "type": "event"
    },
    {
      "anonymous": false,
      "inputs": [
        {
          "indexed": true,
          "internalType": "address",
          "name": "previousOwner",
          "type": "address"
        },
        {
          "indexed": true,
          "internalType": "address",
          "name": "newOwner",
          "type": "address"
        }
      ],
      "name": "OwnershipTransferred",
      "type": "event"
    },
    {
      "anonymous": false,
      "inputs": [
        {
          "indexed": true,
          "internalType": "address",
          "name": "from",
          "type": "address"
        },
        {
          "indexed": true,
          "internalType": "address",
          "name": "to",
          "type": "address"
        },
        {
          "indexed": true,
          "internalType": "uint256",
          "name": "tokenId",
          "type": "uint256"
        }
      ],
      "name": "Transfer",
      "type": "event"
    },
    {
      "inputs": [],
      "name": "MINT_PRICE",
      "outputs": [
        {
          "internalType": "uint256",
          "name": "",
          "type": "uint256"
        }
      ],
      "stateMutability": "view",
      "type": "function"
    },
    {
      "inputs": [
        {
          "internalType": "address",
          "name": "to",
          "type": "address"
        },
        {
          "internalType": "uint256",
          "name": "tokenId",
          "type": "uint256"
        }
      ],
      "name": "approve",
      "outputs": [],
      "stateMutability": "nonpayable",
      "type": "function"
    },
    {
      "inputs": [
        {
          "internalType": "address",
          "name": "owner",
          "type": "address"
        }
      ],
      "name": "balanceOf",
      "outputs": [
        {
          "internalType": "uint256",
          "name": "",
          "type": "uint256"
        }
      ],
      "stateMutability": "view",
      "type": "function"
    },
    {
      "inputs": [
        {
          "internalType": "uint256",
          "name": "",
          "type": "uint256"
        }
      ],
      "name": "collections",
      "outputs": [
        {
          "internalType": "string",
          "name": "",
          "type": "string"
        }
      ],
      "stateMutability": "view",
      "type": "function"
    },
    {
      "inputs": [
        {
          "internalType": "uint256",
          "name": "tokenId",
          "type": "uint256"
        },
        {
          "internalType": "address",
          "name": "to",
          "type": "address"
        }
      ],
      "name": "freeTransfer",
      "outputs": [],
      "stateMutability": "nonpayable",
      "type": "function"
    },
    {
      "inputs": [
        {
          "internalType": "uint256",
          "name": "tokenId",
          "type": "uint256"
        }
      ],
      "name": "getApproved",
      "outputs": [
        {
          "internalType": "address",
          "name": "",
          "type": "address"
        }
      ],
      "stateMutability": "view",
      "type": "function"
    },
    {
      "inputs": [
        {
          "internalType": "address",
          "name": "owner",
          "type": "address"
        },
        {
          "internalType": "address",
          "name": "operator",
          "type": "address"
        }
      ],
      "name": "isApprovedForAll",
      "outputs": [
        {
          "internalType": "bool",
          "name": "",
          "type": "bool"
        }
      ],
      "stateMutability": "view",
      "type": "function"
    },
    {
      "inputs": [
        {
          "internalType": "string",
          "name": "tokenURI",
          "type": "string"
        },
        {
          "internalType": "string",
          "name": "collectionName",
          "type": "string"
        }
      ],
      "name": "mintNFT",
      "outputs": [
        {
          "internalType": "uint256",
          "name": "",
          "type": "uint256"
        }
      ],
      "stateMutability": "payable",
      "type": "function"
    },
    {
      "inputs": [],
      "name": "name",
      "outputs": [
        {
          "internalType": "string",
          "name": "",
          "type": "string"
        }
      ],
      "stateMutability": "view",
      "type": "function"
    },
    {
      "inputs": [],
      "name": "owner",
      "outputs": [
        {
          "internalType": "address",
          "name": "",
          "type": "address"
        }
      ],
      "stateMutability": "view",
      "type": "function"
    },
    {
      "inputs": [
        {
          "internalType": "uint256",
          "name": "tokenId",
          "type": "uint256"
        }
      ],
      "name": "ownerOf",
      "outputs": [
        {
          "internalType": "address",
          "name": "",
          "type": "address"
        }
      ],
      "stateMutability": "view",
      "type": "function"
    },
    {
      "inputs": [],
      "name": "renounceOwnership",
      "outputs": [],
      "stateMutability": "nonpayable",
      "type": "function"
    },
    {
      "inputs": [
        {
          "internalType": "address",
          "name": "from",
          "type": "address"
        },
        {
          "internalType": "address",
          "name": "to",
          "type": "address"
        },
        {
          "internalType": "uint256",
          "name": "tokenId",
          "type": "uint256"
        }
      ],
      "name": "safeTransferFrom",
      "outputs": [],
      "stateMutability": "nonpayable",
      "type": "function"
    },
    {
      "inputs": [
        {
          "internalType": "address",
          "name": "from",
          "type": "address"
        },
        {
          "internalType": "address",
          "name": "to",
          "type": "address"
        },
        {
          "internalType": "uint256",
          "name": "tokenId",
          "type": "uint256"
        },
        {
          "internalType": "bytes",
          "name": "data",
          "type": "bytes"
        }
      ],
      "name": "safeTransferFrom",
      "outputs": [],
      "stateMutability": "nonpayable",
      "type": "function"
    },
    {
      "inputs": [
        {
          "internalType": "address",
          "name": "operator",
          "type": "address"
        },
        {
          "internalType": "bool",
          "name": "approved",
          "type": "bool"
        }
      ],
      "name": "setApprovalForAll",
      "outputs": [],
      "stateMutability": "nonpayable",
      "type": "function"
    },
    {
      "inputs": [
        {
          "internalType": "bytes4",
          "name": "interfaceId",
          "type": "bytes4"
        }
      ],
      "name": "supportsInterface",
      "outputs": [
        {
          "internalType": "bool",
          "name": "",
          "type": "bool"
        }
      ],
      "stateMutability": "view",
      "type": "function"
    },
    {
      "inputs": [],
      "name": "symbol",
      "outputs": [
        {
          "internalType": "string",
          "name": "",
          "type": "string"
        }
      ],
      "stateMutability": "view",
      "type": "function"
    },
    {
      "inputs": [],
      "name": "tokenCounter",
      "outputs": [
        {
          "internalType": "uint256",
          "name": "",
          "type": "uint256"
        }
      ],
      "stateMutability": "view",
      "type": "function"
    },
    {
      "inputs": [
        {
          "internalType": "uint256",
          "name": "tokenId",
          "type": "uint256"
        }
      ],
      "name": "tokenURI",
      "outputs": [
        {
          "internalType": "string",
          "name": "",
          "type": "string"
        }
      ],
      "stateMutability": "view",
      "type": "function"
    },
    {
      "inputs": [
        {
          "internalType": "address",
          "name": "from",
          "type": "address"
        },
        {
          "internalType": "address",
          "name": "to",
          "type": "address"
        },
        {
          "internalType": "uint256",
          "name": "tokenId",
          "type": "uint256"
        }
      ],
      "name": "transferFrom",
      "outputs": [],
      "stateMutability": "nonpayable",
      "type": "function"
    },
    {
      "inputs": [
        {
          "internalType": "address",
          "name": "newOwner",
          "type": "address"
        }
      ],
      "name": "transferOwnership",
      "outputs": [],
      "stateMutability": "nonpayable",
      "type": "function"
    },
    {
      "inputs": [
        {
          "internalType": "address payable",
          "name": "to",
          "type": "address"
        }
      ],
      "name": "withdraw",
      "outputs": [],
      "stateMutability": "nonpayable",
      "type": "function"
    }
  ],
  "bytecode": "0x608060405234801561001057600080fd5b50336040518060400160405280600f81526020017f4d794e4654436f6c6c656374696f6e00000000000000000000000000000000008152506040518060400160405280600481526020017f4d4e465400000000000000000000000000000000000000000000000000000000815250816000908161008d9190610589565b50806001908161009d9190610589565b505050600073ffffffffffffffffffffffffffffffffffffffff168173ffffffffffffffffffffffffffffffffffffffff16036101125760006040517f1e4fbdf7000000000000000000000000000000000000000000000000000000008152600401610109919061069c565b60405180910390fd5b6101218161017360201b60201c565b50600060088190555061016e6040518060400160405280601081526020017f6c6f672d2d2d2d2d4465706c6f7965640000000000000000000000000000000081525061023960201b60201c565b61078d565b6000600760009054906101000a900473ffffffffffffffffffffffffffffffffffffffff16905081600760006101000a81548173ffffffffffffffffffffffffffffffffffffffff021916908373ffffffffffffffffffffffffffffffffffffffff1602179055508173ffffffffffffffffffffffffffffffffffffffff168173ffffffffffffffffffffffffffffffffffffffff167f8be0079c531659141344cd1fd0a4f28419497f9722a3daafe3b4186f6b6457e060405160405180910390a35050565b6102d58160405160240161024d919061073c565b6040516020818303038152906040527f41304fac000000000000000000000000000000000000000000000000000000007bffffffffffffffffffffffffffffffffffffffffffffffffffffffff19166020820180517bffffffffffffffffffffffffffffffffffffffffffffffffffffffff83818316178352505050506102d860201b60201c565b50565b6102f9816102f46102fc60201b6110721761031d60201b60201c565b60201c565b50565b60006a636f6e736f6c652e6c6f679050600080835160208501845afa505050565b61032f60201b61247617819050919050565b61033761075e565b565b600081519050919050565b7f4e487b7100000000000000000000000000000000000000000000000000000000600052604160045260246000fd5b7f4e487b7100000000000000000000000000000000000000000000000000000000600052602260045260246000fd5b600060028204905060018216806103ba57607f821691505b6020821081036103cd576103cc610373565b5b50919050565b60008190508160005260206000209050919050565b60006020601f8301049050919050565b600082821b905092915050565b6000600883026104357fffffffffffffffffffffffffffffffffffffffffffffffffffffffffffffffff826103f8565b61043f86836103f8565b95508019841693508086168417925050509392505050565b6000819050919050565b6000819050919050565b600061048661048161047c84610457565b610461565b610457565b9050919050565b6000819050919050565b6104a08361046b565b6104b46104ac8261048d565b848454610405565b825550505050565b600090565b6104c96104bc565b6104d4818484610497565b505050565b5b818110156104f8576104ed6000826104c1565b6001810190506104da565b5050565b601f82111561053d5761050e816103d3565b610517846103e8565b81016020851015610526578190505b61053a610532856103e8565b8301826104d9565b50505b505050565b600082821c905092915050565b600061056060001984600802610542565b1980831691505092915050565b6000610579838361054f565b9150826002028217905092915050565b61059282610339565b67ffffffffffffffff8111156105ab576105aa610344565b5b6105b582546103a2565b6105c08282856104fc565b600060209050601f8311600181146105f357600084156105e1578287015190505b6105eb858261056d565b865550610653565b601f198416610601866103d3565b60005b8281101561062957848901518255600182019150602085019450602081019050610604565b868310156106465784890151610642601f89168261054f565b8355505b6001600288020188555050505b505050505050565b600073ffffffffffffffffffffffffffffffffffffffff82169050919050565b60006106868261065b565b9050919050565b6106968161067b565b82525050565b60006020820190506106b1600083018461068d565b92915050565b600082825260208201905092915050565b60005b838110156106e65780820151818401526020810190506106cb565b60008484015250505050565b6000601f19601f8301169050919050565b600061070e82610339565b61071881856106b7565b93506107288185602086016106c8565b610731816106f2565b840191505092915050565b600060208201905081810360008301526107568184610703565b905092915050565b7f4e487b7100000000000000000000000000000000000000000000000000000000600052605160045260246000fd5b6134d68061079c6000396000f3fe6080604052600436106101355760003560e01c806395d89b41116100ab578063c87b56dd1161006f578063c87b56dd14610410578063d082e3811461044d578063e960554414610478578063e985e9c5146104a8578063f2fde38b146104e5578063fdbda0ec1461050e57610135565b806395d89b411461033f578063a22cb4651461036a578063b88d4fde14610393578063c002d23d146103bc578063c0d0f142146103e757610135565b806342842e0e116100fd57806342842e0e1461023157806351cff8d91461025a5780636352211e1461028357806370a08231146102c0578063715018a6146102fd5780638da5cb5b1461031457610135565b806301ffc9a71461013a57806306fdde0314610177578063081812fc146101a2578063095ea7b3146101df57806323b872dd14610208575b600080fd5b34801561014657600080fd5b50610161600480360381019061015c91906124ec565b61054b565b60405161016e9190612534565b60405180910390f35b34801561018357600080fd5b5061018c6105ac565b60405161019991906125df565b60405180910390f35b3480156101ae57600080fd5b506101c960048036038101906101c49190612637565b61063e565b6040516101d691906126a5565b60405180910390f35b3480156101eb57600080fd5b50610206600480360381019061020191906126ec565b61065a565b005b34801561021457600080fd5b5061022f600480360381019061022a919061272c565b610670565b005b34801561023d57600080fd5b506102586004803603810190610253919061272c565b610772565b005b34801561026657600080fd5b50610281600480360381019061027c91906127bd565b610792565b005b34801561028f57600080fd5b506102aa60048036038101906102a59190612637565b6108a5565b6040516102b791906126a5565b60405180910390f35b3480156102cc57600080fd5b506102e760048036038101906102e291906127ea565b6108b7565b6040516102f49190612826565b60405180910390f35b34801561030957600080fd5b50610312610971565b005b34801561032057600080fd5b50610329610985565b60405161033691906126a5565b60405180910390f35b34801561034b57600080fd5b506103546109af565b60405161036191906125df565b60405180910390f35b34801561037657600080fd5b50610391600480360381019061038c919061286d565b610a41565b005b34801561039f57600080fd5b506103ba60048036038101906103b591906129e2565b610a57565b005b3480156103c857600080fd5b506103d1610a7c565b6040516103de9190612826565b60405180910390f35b3480156103f357600080fd5b5061040e60048036038101906104099190612a65565b610a87565b005b34801561041c57600080fd5b5061043760048036038101906104329190612637565b610c21565b60405161044491906125df565b60405180910390f35b34801561045957600080fd5b50610462610d34565b60405161046f9190612826565b60405180910390f35b610492600480360381019061048d9190612b46565b610d3a565b60405161049f9190612826565b60405180910390f35b3480156104b457600080fd5b506104cf60048036038101906104ca9190612bbe565b610eb8565b6040516104dc9190612534565b60405180910390f35b3480156104f157600080fd5b5061050c600480360381019061050791906127ea565b610f4c565b005b34801561051a57600080fd5b5061053560048036038101906105309190612637565b610fd2565b60405161054291906125df565b60405180910390f35b6000634906490660e01b7bffffffffffffffffffffffffffffffffffffffffffffffffffffffff1916827bffffffffffffffffffffffffffffffffffffffffffffffffffffffff191614806105a557506105a482611093565b5b9050919050565b6060600080546105bb90612c2d565b80601f01602080910402602001604051908101604052809291908181526020018280546105e790612c2d565b80156106345780601f1061060957610100808354040283529160200191610634565b820191906000526020600020905b81548152906001019060200180831161061757829003601f168201915b5050505050905090565b600061064982611175565b50610653826111fd565b9050919050565b61066c828261066761123a565b611242565b5050565b600073ffffffffffffffffffffffffffffffffffffffff168273ffffffffffffffffffffffffffffffffffffffff16036106e25760006040517f64a0ae920000000000000000000000000000000000000000000000000000000081526004016106d991906126a5565b60405180910390fd5b60006106f683836106f161123a565b611254565b90508373ffffffffffffffffffffffffffffffffffffffff168173ffffffffffffffffffffffffffffffffffffffff161461076c578382826040517f64283d7b00000000000000000000000000000000000000000000000000000000815260040161076393929190612c5e565b60405180910390fd5b50505050565b61078d83838360405180602001604052806000815250610a57565b505050565b61079a61146e565b600073ffffffffffffffffffffffffffffffffffffffff168173ffffffffffffffffffffffffffffffffffffffff1603610809576040517f08c379a000000000000000000000000000000000000000000000000000000000815260040161080090612ce1565b60405180910390fd5b61085b6040518060400160405280601b81526020017f2573204554482072657475726e656420696e746f206f776e65722e0000000000815250670de0b6b3a7640000476108569190612d5f565b6114f5565b8073ffffffffffffffffffffffffffffffffffffffff166108fc479081150290604051600060405180830381858888f193505050501580156108a1573d6000803e3d6000fd5b5050565b60006108b082611175565b9050919050565b60008073ffffffffffffffffffffffffffffffffffffffff168273ffffffffffffffffffffffffffffffffffffffff160361092a5760006040517f89c62b6400000000000000000000000000000000000000000000000000000000815260040161092191906126a5565b60405180910390fd5b600360008373ffffffffffffffffffffffffffffffffffffffff1673ffffffffffffffffffffffffffffffffffffffff168152602001908152602001600020549050919050565b61097961146e565b6109836000611591565b565b6000600760009054906101000a900473ffffffffffffffffffffffffffffffffffffffff16905090565b6060600180546109be90612c2d565b80601f01602080910402602001604051908101604052809291908181526020018280546109ea90612c2d565b8015610a375780601f10610a0c57610100808354040283529160200191610a37565b820191906000526020600020905b815481529060010190602001808311610a1a57829003601f168201915b5050505050905090565b610a53610a4c61123a565b8383611657565b5050565b610a62848484610670565b610a76610a6d61123a565b858585856117c6565b50505050565b662386f26fc1000081565b3373ffffffffffffffffffffffffffffffffffffffff16610aa7836108a5565b73ffffffffffffffffffffffffffffffffffffffff1614610afd576040517f08c379a0000000000000000000000000000000000000000000000000000000008152600401610af490612ddc565b60405180910390fd5b600073ffffffffffffffffffffffffffffffffffffffff168173ffffffffffffffffffffffffffffffffffffffff1603610b6c576040517f08c379a0000000000000000000000000000000000000000000000000000000008152600401610b6390612e48565b60405180910390fd5b610b77338284611977565b8073ffffffffffffffffffffffffffffffffffffffff163373ffffffffffffffffffffffffffffffffffffffff167f0ed3c13c9507b6eb868d7f4aaee3d9ab32ef963f8ad013fe7705ef59e303e98a84604051610bd49190612826565b60405180910390a3610c1d6040518060400160405280601881526020017f2573207472616e73666572656420257320696e746f2025730000000000000000815250338484611ae4565b5050565b6060610c2c82611175565b506000600660008481526020019081526020016000208054610c4d90612c2d565b80601f0160208091040260200160405190810160405280929190818152602001828054610c7990612c2d565b8015610cc65780601f10610c9b57610100808354040283529160200191610cc6565b820191906000526020600020905b815481529060010190602001808311610ca957829003601f168201915b505050505090506000610cd7611b86565b90506000815103610cec578192505050610d2f565b600082511115610d21578082604051602001610d09929190612ea4565b60405160208183030381529060405292505050610d2f565b610d2a84611b9d565b925050505b919050565b60085481565b6000662386f26fc100003414610d85576040517f08c379a0000000000000000000000000000000000000000000000000000000008152600401610d7c90612f14565b60405180910390fd5b6000825111610dc9576040517f08c379a0000000000000000000000000000000000000000000000000000000008152600401610dc090612f80565b60405180910390fd5b60006008549050610dda3382611c06565b610de48185611c24565b82600960008381526020019081526020016000209081610e04919061314c565b5060086000815480929190610e189061321e565b91905055503373ffffffffffffffffffffffffffffffffffffffff167fe7cd4ce7f2a465edc730269a1305e8a48bad821e8fb7e152ec413829c01a53c48285604051610e65929190613266565b60405180910390a2610eae6040518060400160405280601d81526020017f6c6f672d2d2d2d25732773202573206d696e74656420696e746f202573000000815250338386611c80565b8091505092915050565b6000600560008473ffffffffffffffffffffffffffffffffffffffff1673ffffffffffffffffffffffffffffffffffffffff16815260200190815260200160002060008373ffffffffffffffffffffffffffffffffffffffff1673ffffffffffffffffffffffffffffffffffffffff16815260200190815260200160002060009054906101000a900460ff16905092915050565b610f5461146e565b600073ffffffffffffffffffffffffffffffffffffffff168173ffffffffffffffffffffffffffffffffffffffff1603610fc65760006040517f1e4fbdf7000000000000000000000000000000000000000000000000000000008152600401610fbd91906126a5565b60405180910390fd5b610fcf81611591565b50565b60096020528060005260406000206000915090508054610ff190612c2d565b80601f016020809104026020016040519081016040528092919081815260200182805461101d90612c2d565b801561106a5780601f1061103f5761010080835404028352916020019161106a565b820191906000526020600020905b81548152906001019060200180831161104d57829003601f168201915b505050505081565b60006a636f6e736f6c652e6c6f679050600080835160208501845afa505050565b60007f80ac58cd000000000000000000000000000000000000000000000000000000007bffffffffffffffffffffffffffffffffffffffffffffffffffffffff1916827bffffffffffffffffffffffffffffffffffffffffffffffffffffffff1916148061115e57507f5b5e139f000000000000000000000000000000000000000000000000000000007bffffffffffffffffffffffffffffffffffffffffffffffffffffffff1916827bffffffffffffffffffffffffffffffffffffffffffffffffffffffff1916145b8061116e575061116d82611d22565b5b9050919050565b60008061118183611d8c565b9050600073ffffffffffffffffffffffffffffffffffffffff168173ffffffffffffffffffffffffffffffffffffffff16036111f457826040517f7e2732890000000000000000000000000000000000000000000000000000000081526004016111eb9190612826565b60405180910390fd5b80915050919050565b60006004600083815260200190815260200160002060009054906101000a900473ffffffffffffffffffffffffffffffffffffffff169050919050565b600033905090565b61124f8383836001611dc9565b505050565b60008061126084611d8c565b9050600073ffffffffffffffffffffffffffffffffffffffff168373ffffffffffffffffffffffffffffffffffffffff16146112a2576112a1818486611f8e565b5b600073ffffffffffffffffffffffffffffffffffffffff168173ffffffffffffffffffffffffffffffffffffffff1614611333576112e4600085600080611dc9565b6001600360008373ffffffffffffffffffffffffffffffffffffffff1673ffffffffffffffffffffffffffffffffffffffff168152602001908152602001600020600082825403925050819055505b600073ffffffffffffffffffffffffffffffffffffffff168573ffffffffffffffffffffffffffffffffffffffff16146113b6576001600360008773ffffffffffffffffffffffffffffffffffffffff1673ffffffffffffffffffffffffffffffffffffffff168152602001908152602001600020600082825401925050819055505b846002600086815260200190815260200160002060006101000a81548173ffffffffffffffffffffffffffffffffffffffff021916908373ffffffffffffffffffffffffffffffffffffffff160217905550838573ffffffffffffffffffffffffffffffffffffffff168273ffffffffffffffffffffffffffffffffffffffff167fddf252ad1be2c89b69c2b068fc378daa952ba7f163c4a11628f55a4df523b3ef60405160405180910390a4809150509392505050565b61147661123a565b73ffffffffffffffffffffffffffffffffffffffff16611494610985565b73ffffffffffffffffffffffffffffffffffffffff16146114f3576114b761123a565b6040517f118cdaa70000000000000000000000000000000000000000000000000000000081526004016114ea91906126a5565b60405180910390fd5b565b61158d828260405160240161150b929190613296565b6040516020818303038152906040527fb60e72cc000000000000000000000000000000000000000000000000000000007bffffffffffffffffffffffffffffffffffffffffffffffffffffffff19166020820180517bffffffffffffffffffffffffffffffffffffffffffffffffffffffff8381831617835250505050612052565b5050565b6000600760009054906101000a900473ffffffffffffffffffffffffffffffffffffffff16905081600760006101000a81548173ffffffffffffffffffffffffffffffffffffffff021916908373ffffffffffffffffffffffffffffffffffffffff1602179055508173ffffffffffffffffffffffffffffffffffffffff168173ffffffffffffffffffffffffffffffffffffffff167f8be0079c531659141344cd1fd0a4f28419497f9722a3daafe3b4186f6b6457e060405160405180910390a35050565b600073ffffffffffffffffffffffffffffffffffffffff168273ffffffffffffffffffffffffffffffffffffffff16036116c857816040517f5b08ba180000000000000000000000000000000000000000000000000000000081526004016116bf91906126a5565b60405180910390fd5b80600560008573ffffffffffffffffffffffffffffffffffffffff1673ffffffffffffffffffffffffffffffffffffffff16815260200190815260200160002060008473ffffffffffffffffffffffffffffffffffffffff1673ffffffffffffffffffffffffffffffffffffffff16815260200190815260200160002060006101000a81548160ff0219169083151502179055508173ffffffffffffffffffffffffffffffffffffffff168373ffffffffffffffffffffffffffffffffffffffff167f17307eab39ab6107e8899845ad3d59bd9653f200f220920489ca2b5937696c31836040516117b99190612534565b60405180910390a3505050565b60008373ffffffffffffffffffffffffffffffffffffffff163b1115611970578273ffffffffffffffffffffffffffffffffffffffff1663150b7a02868685856040518563ffffffff1660e01b8152600401611825949392919061331b565b6020604051808303816000875af192505050801561186157506040513d601f19601f8201168201806040525081019061185e919061337c565b60015b6118e5573d8060008114611891576040519150601f19603f3d011682016040523d82523d6000602084013e611896565b606091505b5060008151036118dd57836040517f64a0ae920000000000000000000000000000000000000000000000000000000081526004016118d491906126a5565b60405180910390fd5b805160208201fd5b63150b7a0260e01b7bffffffffffffffffffffffffffffffffffffffffffffffffffffffff1916817bffffffffffffffffffffffffffffffffffffffffffffffffffffffff19161461196e57836040517f64a0ae9200000000000000000000000000000000000000000000000000000000815260040161196591906126a5565b60405180910390fd5b505b5050505050565b600073ffffffffffffffffffffffffffffffffffffffff168273ffffffffffffffffffffffffffffffffffffffff16036119e95760006040517f64a0ae920000000000000000000000000000000000000000000000000000000081526004016119e091906126a5565b60405180910390fd5b60006119f783836000611254565b9050600073ffffffffffffffffffffffffffffffffffffffff168173ffffffffffffffffffffffffffffffffffffffff1603611a6a57816040517f7e273289000000000000000000000000000000000000000000000000000000008152600401611a619190612826565b60405180910390fd5b8373ffffffffffffffffffffffffffffffffffffffff168173ffffffffffffffffffffffffffffffffffffffff1614611ade578382826040517f64283d7b000000000000000000000000000000000000000000000000000000008152600401611ad593929190612c5e565b60405180910390fd5b50505050565b611b8084848484604051602401611afe94939291906133a9565b6040516020818303038152906040527f63fb8bc5000000000000000000000000000000000000000000000000000000007bffffffffffffffffffffffffffffffffffffffffffffffffffffffff19166020820180517bffffffffffffffffffffffffffffffffffffffffffffffffffffffff8381831617835250505050612052565b50505050565b606060405180602001604052806000815250905090565b6060611ba882611175565b506000611bb3611b86565b90506000815111611bd35760405180602001604052806000815250611bfe565b80611bdd8461206c565b604051602001611bee929190612ea4565b6040516020818303038152906040525b915050919050565b611c2082826040518060200160405280600081525061213a565b5050565b80600660008481526020019081526020016000209081611c44919061314c565b507ff8e1a15aba9398e019f0b49df1a4fde98ee17ae345cb5f6b5e2c27f5033e8ce782604051611c749190612826565b60405180910390a15050565b611d1c84848484604051602401611c9a94939291906133f5565b6040516020818303038152906040527f5a477632000000000000000000000000000000000000000000000000000000007bffffffffffffffffffffffffffffffffffffffffffffffffffffffff19166020820180517bffffffffffffffffffffffffffffffffffffffffffffffffffffffff8381831617835250505050612052565b50505050565b60007f01ffc9a7000000000000000000000000000000000000000000000000000000007bffffffffffffffffffffffffffffffffffffffffffffffffffffffff1916827bffffffffffffffffffffffffffffffffffffffffffffffffffffffff1916149050919050565b60006002600083815260200190815260200160002060009054906101000a900473ffffffffffffffffffffffffffffffffffffffff169050919050565b8080611e025750600073ffffffffffffffffffffffffffffffffffffffff168273ffffffffffffffffffffffffffffffffffffffff1614155b15611f36576000611e1284611175565b9050600073ffffffffffffffffffffffffffffffffffffffff168373ffffffffffffffffffffffffffffffffffffffff1614158015611e7d57508273ffffffffffffffffffffffffffffffffffffffff168173ffffffffffffffffffffffffffffffffffffffff1614155b8015611e905750611e8e8184610eb8565b155b15611ed257826040517fa9fbf51f000000000000000000000000000000000000000000000000000000008152600401611ec991906126a5565b60405180910390fd5b8115611f3457838573ffffffffffffffffffffffffffffffffffffffff168273ffffffffffffffffffffffffffffffffffffffff167f8c5be1e5ebec7d5bd14f71427d1e84f3dd0314c0f7b2291e5b200ac8c7c3b92560405160405180910390a45b505b836004600085815260200190815260200160002060006101000a81548173ffffffffffffffffffffffffffffffffffffffff021916908373ffffffffffffffffffffffffffffffffffffffff16021790555050505050565b611f9983838361215e565b61204d57600073ffffffffffffffffffffffffffffffffffffffff168373ffffffffffffffffffffffffffffffffffffffff160361200e57806040517f7e2732890000000000000000000000000000000000000000000000000000000081526004016120059190612826565b60405180910390fd5b81816040517f177e802f000000000000000000000000000000000000000000000000000000008152600401612044929190613448565b60405180910390fd5b505050565b6120698161206161107261221f565b63ffffffff16565b50565b60606000600161207b8461222a565b01905060008167ffffffffffffffff81111561209a576120996128b7565b5b6040519080825280601f01601f1916602001820160405280156120cc5781602001600182028036833780820191505090505b509050600082602083010190505b60011561212f578080600190039150507f3031323334353637383961626364656600000000000000000000000000000000600a86061a8153600a858161212357612122612d01565b5b049450600085036120da575b819350505050919050565b612144838361237d565b61215961214f61123a565b60008585856117c6565b505050565b60008073ffffffffffffffffffffffffffffffffffffffff168373ffffffffffffffffffffffffffffffffffffffff161415801561221657508273ffffffffffffffffffffffffffffffffffffffff168473ffffffffffffffffffffffffffffffffffffffff1614806121d757506121d68484610eb8565b5b8061221557508273ffffffffffffffffffffffffffffffffffffffff166121fd836111fd565b73ffffffffffffffffffffffffffffffffffffffff16145b5b90509392505050565b612476819050919050565b600080600090507a184f03e93ff9f4daa797ed6e38ed64bf6a1f0100000000000000008310612288577a184f03e93ff9f4daa797ed6e38ed64bf6a1f010000000000000000838161227e5761227d612d01565b5b0492506040810190505b6d04ee2d6d415b85acef810000000083106122c5576d04ee2d6d415b85acef810000000083816122bb576122ba612d01565b5b0492506020810190505b662386f26fc1000083106122f457662386f26fc1000083816122ea576122e9612d01565b5b0492506010810190505b6305f5e100831061231d576305f5e100838161231357612312612d01565b5b0492506008810190505b612710831061234257612710838161233857612337612d01565b5b0492506004810190505b60648310612365576064838161235b5761235a612d01565b5b0492506002810190505b600a8310612374576001810190505b80915050919050565b600073ffffffffffffffffffffffffffffffffffffffff168273ffffffffffffffffffffffffffffffffffffffff16036123ef5760006040517f64a0ae920000000000000000000000000000000000000000000000000000000081526004016123e691906126a5565b60405180910390fd5b60006123fd83836000611254565b9050600073ffffffffffffffffffffffffffffffffffffffff168173ffffffffffffffffffffffffffffffffffffffff16146124715760006040517f73c6ac6e00000000000000000000000000000000000000000000000000000000815260040161246891906126a5565b60405180910390fd5b505050565b61247e613471565b565b6000604051905090565b600080fd5b600080fd5b60007fffffffff0000000000000000000000000000000000000000000000000000000082169050919050565b6124c981612494565b81146124d457600080fd5b50565b6000813590506124e6816124c0565b92915050565b6000602082840312156125025761250161248a565b5b6000612510848285016124d7565b91505092915050565b60008115159050919050565b61252e81612519565b82525050565b60006020820190506125496000830184612525565b92915050565b600081519050919050565b600082825260208201905092915050565b60005b8381101561258957808201518184015260208101905061256e565b60008484015250505050565b6000601f19601f8301169050919050565b60006125b18261254f565b6125bb818561255a565b93506125cb81856020860161256b565b6125d481612595565b840191505092915050565b600060208201905081810360008301526125f981846125a6565b905092915050565b6000819050919050565b61261481612601565b811461261f57600080fd5b50565b6000813590506126318161260b565b92915050565b60006020828403121561264d5761264c61248a565b5b600061265b84828501612622565b91505092915050565b600073ffffffffffffffffffffffffffffffffffffffff82169050919050565b600061268f82612664565b9050919050565b61269f81612684565b82525050565b60006020820190506126ba6000830184612696565b92915050565b6126c981612684565b81146126d457600080fd5b50565b6000813590506126e6816126c0565b92915050565b600080604083850312156127035761270261248a565b5b6000612711858286016126d7565b925050602061272285828601612622565b9150509250929050565b6000806000606084860312156127455761274461248a565b5b6000612753868287016126d7565b9350506020612764868287016126d7565b925050604061277586828701612622565b9150509250925092565b600061278a82612664565b9050919050565b61279a8161277f565b81146127a557600080fd5b50565b6000813590506127b781612791565b92915050565b6000602082840312156127d3576127d261248a565b5b60006127e1848285016127a8565b91505092915050565b600060208284031215612800576127ff61248a565b5b600061280e848285016126d7565b91505092915050565b61282081612601565b82525050565b600060208201905061283b6000830184612817565b92915050565b61284a81612519565b811461285557600080fd5b50565b60008135905061286781612841565b92915050565b600080604083850312156128845761288361248a565b5b6000612892858286016126d7565b92505060206128a385828601612858565b9150509250929050565b600080fd5b600080fd5b7f4e487b7100000000000000000000000000000000000000000000000000000000600052604160045260246000fd5b6128ef82612595565b810181811067ffffffffffffffff8211171561290e5761290d6128b7565b5b80604052505050565b6000612921612480565b905061292d82826128e6565b919050565b600067ffffffffffffffff82111561294d5761294c6128b7565b5b61295682612595565b9050602081019050919050565b82818337600083830152505050565b600061298561298084612932565b612917565b9050828152602081018484840111156129a1576129a06128b2565b5b6129ac848285612963565b509392505050565b600082601f8301126129c9576129c86128ad565b5b81356129d9848260208601612972565b91505092915050565b600080600080608085870312156129fc576129fb61248a565b5b6000612a0a878288016126d7565b9450506020612a1b878288016126d7565b9350506040612a2c87828801612622565b925050606085013567ffffffffffffffff811115612a4d57612a4c61248f565b5b612a59878288016129b4565b91505092959194509250565b60008060408385031215612a7c57612a7b61248a565b5b6000612a8a85828601612622565b9250506020612a9b858286016126d7565b9150509250929050565b600067ffffffffffffffff821115612ac057612abf6128b7565b5b612ac982612595565b9050602081019050919050565b6000612ae9612ae484612aa5565b612917565b905082815260208101848484011115612b0557612b046128b2565b5b612b10848285612963565b509392505050565b600082601f830112612b2d57612b2c6128ad565b5b8135612b3d848260208601612ad6565b91505092915050565b60008060408385031215612b5d57612b5c61248a565b5b600083013567ffffffffffffffff811115612b7b57612b7a61248f565b5b612b8785828601612b18565b925050602083013567ffffffffffffffff811115612ba857612ba761248f565b5b612bb485828601612b18565b9150509250929050565b60008060408385031215612bd557612bd461248a565b5b6000612be3858286016126d7565b9250506020612bf4858286016126d7565b9150509250929050565b7f4e487b7100000000000000000000000000000000000000000000000000000000600052602260045260246000fd5b60006002820490506001821680612c4557607f821691505b602082108103612c5857612c57612bfe565b5b50919050565b6000606082019050612c736000830186612696565b612c806020830185612817565b612c8d6040830184612696565b949350505050565b7f496e76616c696420616464726573730000000000000000000000000000000000600082015250565b6000612ccb600f8361255a565b9150612cd682612c95565b602082019050919050565b60006020820190508181036000830152612cfa81612cbe565b9050919050565b7f4e487b7100000000000000000000000000000000000000000000000000000000600052601260045260246000fd5b7f4e487b7100000000000000000000000000000000000000000000000000000000600052601160045260246000fd5b6000612d6a82612601565b9150612d7583612601565b925082612d8557612d84612d01565b5b828204905092915050565b7f4e6f7420746f6b656e206f776e65720000000000000000000000000000000000600082015250565b6000612dc6600f8361255a565b9150612dd182612d90565b602082019050919050565b60006020820190508181036000830152612df581612db9565b9050919050565b7f496e76616c696420726563697069656e74000000000000000000000000000000600082015250565b6000612e3260118361255a565b9150612e3d82612dfc565b602082019050919050565b60006020820190508181036000830152612e6181612e25565b9050919050565b600081905092915050565b6000612e7e8261254f565b612e888185612e68565b9350612e9881856020860161256b565b80840191505092915050565b6000612eb08285612e73565b9150612ebc8284612e73565b91508190509392505050565b7f496e636f7272656374204554482073656e740000000000000000000000000000600082015250565b6000612efe60128361255a565b9150612f0982612ec8565b602082019050919050565b60006020820190508181036000830152612f2d81612ef1565b9050919050565b7f436f6c6c656374696f6e206e616d652072657175697265640000000000000000600082015250565b6000612f6a60188361255a565b9150612f7582612f34565b602082019050919050565b60006020820190508181036000830152612f9981612f5d565b9050919050565b60008190508160005260206000209050919050565b60006020601f8301049050919050565b600082821b905092915050565b6000600883026130027fffffffffffffffffffffffffffffffffffffffffffffffffffffffffffffffff82612fc5565b61300c8683612fc5565b95508019841693508086168417925050509392505050565b6000819050919050565b600061304961304461303f84612601565b613024565b612601565b9050919050565b6000819050919050565b6130638361302e565b61307761306f82613050565b848454612fd2565b825550505050565b600090565b61308c61307f565b61309781848461305a565b505050565b5b818110156130bb576130b0600082613084565b60018101905061309d565b5050565b601f821115613100576130d181612fa0565b6130da84612fb5565b810160208510156130e9578190505b6130fd6130f585612fb5565b83018261309c565b50505b505050565b600082821c905092915050565b600061312360001984600802613105565b1980831691505092915050565b600061313c8383613112565b9150826002028217905092915050565b6131558261254f565b67ffffffffffffffff81111561316e5761316d6128b7565b5b6131788254612c2d565b6131838282856130bf565b600060209050601f8311600181146131b657600084156131a4578287015190505b6131ae8582613130565b865550613216565b601f1984166131c486612fa0565b60005b828110156131ec578489015182556001820191506020850194506020810190506131c7565b868310156132095784890151613205601f891682613112565b8355505b6001600288020188555050505b505050505050565b600061322982612601565b91507fffffffffffffffffffffffffffffffffffffffffffffffffffffffffffffffff820361325b5761325a612d30565b5b600182019050919050565b600060408201905061327b6000830185612817565b818103602083015261328d81846125a6565b90509392505050565b600060408201905081810360008301526132b081856125a6565b90506132bf6020830184612817565b9392505050565b600081519050919050565b600082825260208201905092915050565b60006132ed826132c6565b6132f781856132d1565b935061330781856020860161256b565b61331081612595565b840191505092915050565b60006080820190506133306000830187612696565b61333d6020830186612696565b61334a6040830185612817565b818103606083015261335c81846132e2565b905095945050505050565b600081519050613376816124c0565b92915050565b6000602082840312156133925761339161248a565b5b60006133a084828501613367565b91505092915050565b600060808201905081810360008301526133c381876125a6565b90506133d26020830186612696565b6133df6040830185612817565b6133ec6060830184612696565b95945050505050565b6000608082019050818103600083015261340f81876125a6565b905061341e6020830186612696565b61342b6040830185612817565b818103606083015261343d81846125a6565b905095945050505050565b600060408201905061345d6000830185612696565b61346a6020830184612817565b9392505050565b7f4e487b7100000000000000000000000000000000000000000000000000000000600052605160045260246000fdfea26469706673582212202d120c68930bda6f125313ae6d4d258f97853564925ca5d9758e11a0c6bd586564736f6c634300081c0033",
  "linkReferences": {},
  "deployedLinkReferences": {}
}